:1008E800484F4D45204155544F4D4154494F4E00B6
:1008F8005553494E47203830353100414243443141
:1009080032333435363738395259595446525900EA
:10091800202020202020202046414E20202020205A
:10092800200020202020202020204F4E202000467C
:10093800414E204F464600202020202020202046DF
:10094800414E202020202020200020202020202070
:1009580020204F46462020200042554C42204F4E32
:10096800002020202020202042554C4220202020FA
:1009780020202000202020202020204F4E20202032
:100988000042554C42204F4646002020202020207F
:1009980042554C42202020202020002020202020CA
:0B09A800204F46462020202020200089
:030B1F00010C00C6
:100AA9007F38120AEF7F0E120AEF7F01120AEF7FD9
:0E0AB90006120AEF7F0C120AEF7F80020AEF8E
:0E0AEF008F80C2A7C2A6D2A5120AE0C2A5221D
:0E0AFD008F80D2A7C2A6D2A5120AE0C2A522FF
:100A3F008B088A09890AAB08AA09A90A120AC76092
:100A4F0013050AE50A7002050914F9120AC7FF1205
:050A5F000AFD80E22207
:0E0AE000E4FFFE0FBF00010EBE17F8BF71F558
:010AEE0022E5
:100A8900E4FDFCC3ED9FEC9E5015E4FBFA0BBB00A3
:0F0A9900010AEB64784A70F50DBD00010C80E492
:010AA800222B
:0C0B0B00759850438920758DFDD28E2214
:100A64008B088A09890AAB08AA09A90A120AC7606D
:100A740013050AE50A7002050914F9120AC7FF12E0
:050A84000B1780E222C7
:080B17008F993099FDC299226B
:10080000120B0BE4F5A0120AA97F80120AEF7BFFFE
:100810007A0879E8120A3F7FC0120AEF7BFF7A0854
:1008200079F8120A3F3098FD85990C850C0BC29817
:10083000E50B64417027D2A07BFF7A097903120A85
:10084000647F80120AEF7BFF7A097918120A3F7FD2
:10085000C0120AEF7BFF7A09792A0208DFE50B64F0
:10086000427026C2A07BFF7A097937120A647F8022
:10087000120AEF7BFF7A09793F120A3F7FC0120A02
:10088000EF7BFF7A0979528056E50B64437026D2DC
:10089000A17BFF7A097961120A647F80120AEF7BDB
:1008A000FF7A097969120A3F7FC0120AEF7BFF7A4B
:1008B00009797C802AE50B64447027C2A17BFF7A0A
:1008C000097989120A647F80120AEF7BFF7A09791D
:1008D00092120A3F7FC0120AEF7BFF7A0979A312B6
:0808E0000A3FE4F50B020825B4
:030000000209B33F
:0C09B300787FE4F6D8FD75810C0209FA8B
:100AC700BB010689828A83E0225002E722BBFE022D
:090AD700E32289828A83E4932260
:1009BF00020800E493A3F8E493A34003F68001F246
:1009CF0008DFF48029E493A3F85407240CC8C33339
:1009DF00C4540F4420C8834004F456800146F6DF08
:1009EF00E4800B0102040810204080900B1FE47E6E
:1009FF00019360BCA3FF543F30E509541FFEE493FD
:100A0F00A360010ECF54C025E060A840B8E493A3C3
:100A1F00FAE493A3F8E493A3C8C582C8CAC583CAEE
:100A2F00F0A3C8C582C8CAC583CADFE9DEE780BEA6
:010B220000D2
:00000001FF
